{
	"contracts/Caller.sol": {
		"Caller": {
			"abi": [
				{
					"inputs": [
						{
							"internalType": "address",
							"name": "receiverAddr",
							"type": "address"
						},
						{
							"internalType": "uint256",
							"name": "a",
							"type": "uint256"
						},
						{
							"internalType": "uint256",
							"name": "b",
							"type": "uint256"
						}
					],
					"name": "callCompute",
					"outputs": [
						{
							"internalType": "uint256",
							"name": "",
							"type": "uint256"
						},
						{
							"internalType": "uint256",
							"name": "",
							"type": "uint256"
						},
						{
							"internalType": "uint256",
							"name": "",
							"type": "uint256"
						},
						{
							"internalType": "uint256",
							"name": "",
							"type": "uint256"
						}
					],
					"stateMutability": "pure",
					"type": "function"
				}
			],
			"devdoc": {
				"kind": "dev",
				"methods": {},
				"version": 1
			},
			"evm": {
				"assembly": "    /* \"contracts/Caller.sol\":467:667  contract Caller {... */\n  mstore(0x40, 0x80)\n  callvalue\n  dup1\n  iszero\n  tag_1\n  jumpi\n  revert(0x00, 0x00)\ntag_1:\n  pop\n  dataSize(sub_0)\n  dup1\n  dataOffset(sub_0)\n  0x00\n  codecopy\n  0x00\n  return\nstop\n\nsub_0: assembly {\n        /* \"contracts/Caller.sol\":467:667  contract Caller {... */\n      mstore(0x40, 0x80)\n      callvalue\n      dup1\n      iszero\n      tag_1\n      jumpi\n      revert(0x00, 0x00)\n    tag_1:\n      pop\n      jumpi(tag_2, lt(calldatasize, 0x04))\n      shr(0xe0, calldataload(0x00))\n      dup1\n      0xd02a7f3d\n      eq\n      tag_3\n      jumpi\n    tag_2:\n      revert(0x00, 0x00)\n        /* \"contracts/Caller.sol\":490:664  function callCompute(address receiverAddr, uint a, uint b) external pure returns (uint, uint, uint, uint)... */\n    tag_3:\n      tag_4\n      0x04\n      dup1\n      calldatasize\n      sub\n      dup2\n      add\n      swap1\n      tag_5\n      swap2\n      swap1\n      tag_6\n      jump\t// in\n    tag_5:\n      tag_7\n      jump\t// in\n    tag_4:\n      mload(0x40)\n      tag_8\n      swap5\n      swap4\n      swap3\n      swap2\n      swap1\n      tag_9\n      jump\t// in\n    tag_8:\n      mload(0x40)\n      dup1\n      swap2\n      sub\n      swap1\n      return\n    tag_7:\n        /* \"contracts/Caller.sol\":572:576  uint */\n      0x00\n        /* \"contracts/Caller.sol\":578:582  uint */\n      0x00\n        /* \"contracts/Caller.sol\":584:588  uint */\n      0x00\n        /* \"contracts/Caller.sol\":590:594  uint */\n      0x00\n        /* \"contracts/Caller.sol\":629:641  receiverAddr */\n      dup7\n        /* \"contracts/Caller.sol\":619:650  IReceiver(receiverAddr).compute */\n      0xffffffffffffffffffffffffffffffffffffffff\n      and\n      0x7a85644b\n        /* \"contracts/Caller.sol\":651:652  a */\n      dup8\n        /* \"contracts/Caller.sol\":654:655  b */\n      dup8\n        /* \"contracts/Caller.sol\":619:656  IReceiver(receiverAddr).compute(a, b) */\n      mload(0x40)\n      dup4\n      0xffffffff\n      and\n      0xe0\n      shl\n      dup2\n      mstore\n      0x04\n      add\n      tag_11\n      swap3\n      swap2\n      swap1\n      tag_12\n      jump\t// in\n    tag_11:\n      0x80\n      mload(0x40)\n      dup1\n      dup4\n      sub\n      dup2\n      dup7\n      gas\n      staticcall\n      iszero\n      dup1\n      iszero\n      tag_14\n      jumpi\n      returndatacopy(0x00, 0x00, returndatasize)\n      revert(0x00, returndatasize)\n    tag_14:\n      pop\n      pop\n      pop\n      pop\n      mload(0x40)\n      returndatasize\n      not(0x1f)\n      0x1f\n      dup3\n      add\n      and\n      dup3\n      add\n      dup1\n      0x40\n      mstore\n      pop\n      dup2\n      add\n      swap1\n      tag_15\n      swap2\n      swap1\n      tag_16\n      jump\t// in\n    tag_15:\n        /* \"contracts/Caller.sol\":612:656  return IReceiver(receiverAddr).compute(a, b) */\n      swap4\n      pop\n      swap4\n      pop\n      swap4\n      pop\n      swap4\n      pop\n        /* \"contracts/Caller.sol\":490:664  function callCompute(address receiverAddr, uint a, uint b) external pure returns (uint, uint, uint, uint)... */\n      swap4\n      pop\n      swap4\n      pop\n      swap4\n      pop\n      swap4\n      jump\t// out\n        /* \"#utility.yul\":88:205   */\n    tag_18:\n        /* \"#utility.yul\":197:198   */\n      0x00\n        /* \"#utility.yul\":194:195   */\n      0x00\n        /* \"#utility.yul\":187:199   */\n      revert\n        /* \"#utility.yul\":334:460   */\n    tag_20:\n        /* \"#utility.yul\":371:378   */\n      0x00\n        /* \"#utility.yul\":411:453   */\n      0xffffffffffffffffffffffffffffffffffffffff\n        /* \"#utility.yul\":404:409   */\n      dup3\n        /* \"#utility.yul\":400:454   */\n      and\n        /* \"#utility.yul\":389:454   */\n      swap1\n      pop\n        /* \"#utility.yul\":334:460   */\n      swap2\n      swap1\n      pop\n      jump\t// out\n        /* \"#utility.yul\":466:562   */\n    tag_21:\n        /* \"#utility.yul\":503:510   */\n      0x00\n        /* \"#utility.yul\":532:556   */\n      tag_35\n        /* \"#utility.yul\":550:555   */\n      dup3\n        /* \"#utility.yul\":532:556   */\n      tag_20\n      jump\t// in\n    tag_35:\n        /* \"#utility.yul\":521:556   */\n      swap1\n      pop\n        /* \"#utility.yul\":466:562   */\n      swap2\n      swap1\n      pop\n      jump\t// out\n        /* \"#utility.yul\":568:690   */\n    tag_22:\n        /* \"#utility.yul\":641:665   */\n      tag_37\n        /* \"#utility.yul\":659:664   */\n      dup2\n        /* \"#utility.yul\":641:665   */\n      tag_21\n      jump\t// in\n    tag_37:\n        /* \"#utility.yul\":634:639   */\n      dup2\n        /* \"#utility.yul\":631:666   */\n      eq\n        /* \"#utility.yul\":621:684   */\n      tag_38\n      jumpi\n        /* \"#utility.yul\":680:681   */\n      0x00\n        /* \"#utility.yul\":677:678   */\n      0x00\n        /* \"#utility.yul\":670:682   */\n      revert\n        /* \"#utility.yul\":621:684   */\n    tag_38:\n        /* \"#utility.yul\":568:690   */\n      pop\n      jump\t// out\n        /* \"#utility.yul\":696:835   */\n    tag_23:\n        /* \"#utility.yul\":742:747   */\n      0x00\n        /* \"#utility.yul\":780:786   */\n      dup2\n        /* \"#utility.yul\":767:787   */\n      calldataload\n        /* \"#utility.yul\":758:787   */\n      swap1\n      pop\n        /* \"#utility.yul\":796:829   */\n      tag_40\n        /* \"#utility.yul\":823:828   */\n      dup2\n        /* \"#utility.yul\":796:829   */\n      tag_22\n      jump\t// in\n    tag_40:\n        /* \"#utility.yul\":696:835   */\n      swap3\n      swap2\n      pop\n      pop\n      jump\t// out\n        /* \"#utility.yul\":841:918   */\n    tag_24:\n        /* \"#utility.yul\":878:885   */\n      0x00\n        /* \"#utility.yul\":907:912   */\n      dup2\n        /* \"#utility.yul\":896:912   */\n      swap1\n      pop\n        /* \"#utility.yul\":841:918   */\n      swap2\n      swap1\n      pop\n      jump\t// out\n        /* \"#utility.yul\":924:1046   */\n    tag_25:\n        /* \"#utility.yul\":997:1021   */\n      tag_43\n        /* \"#utility.yul\":1015:1020   */\n      dup2\n        /* \"#utility.yul\":997:1021   */\n      tag_24\n      jump\t// in\n    tag_43:\n        /* \"#utility.yul\":990:995   */\n      dup2\n        /* \"#utility.yul\":987:1022   */\n      eq\n        /* \"#utility.yul\":977:1040   */\n      tag_44\n      jumpi\n        /* \"#utility.yul\":1036:1037   */\n      0x00\n        /* \"#utility.yul\":1033:1034   */\n      0x00\n        /* \"#utility.yul\":1026:1038   */\n      revert\n        /* \"#utility.yul\":977:1040   */\n    tag_44:\n        /* \"#utility.yul\":924:1046   */\n      pop\n      jump\t// out\n        /* \"#utility.yul\":1052:1191   */\n    tag_26:\n        /* \"#utility.yul\":1098:1103   */\n      0x00\n        /* \"#utility.yul\":1136:1142   */\n      dup2\n        /* \"#utility.yul\":1123:1143   */\n      calldataload\n        /* \"#utility.yul\":1114:1143   */\n      swap1\n      pop\n        /* \"#utility.yul\":1152:1185   */\n      tag_46\n        /* \"#utility.yul\":1179:1184   */\n      dup2\n        /* \"#utility.yul\":1152:1185   */\n      tag_25\n      jump\t// in\n    tag_46:\n        /* \"#utility.yul\":1052:1191   */\n      swap3\n      swap2\n      pop\n      pop\n      jump\t// out\n        /* \"#utility.yul\":1197:1816   */\n    tag_6:\n        /* \"#utility.yul\":1274:1280   */\n      0x00\n        /* \"#utility.yul\":1282:1288   */\n      0x00\n        /* \"#utility.yul\":1290:1296   */\n      0x00\n        /* \"#utility.yul\":1339:1341   */\n      0x60\n        /* \"#utility.yul\":1327:1336   */\n      dup5\n        /* \"#utility.yul\":1318:1325   */\n      dup7\n        /* \"#utility.yul\":1314:1337   */\n      sub\n        /* \"#utility.yul\":1310:1342   */\n      slt\n        /* \"#utility.yul\":1307:1426   */\n      iszero\n      tag_48\n      jumpi\n        /* \"#utility.yul\":1345:1424   */\n      tag_49\n      tag_18\n      jump\t// in\n    tag_49:\n        /* \"#utility.yul\":1307:1426   */\n    tag_48:\n        /* \"#utility.yul\":1465:1466   */\n      0x00\n        /* \"#utility.yul\":1490:1543   */\n      tag_50\n        /* \"#utility.yul\":1535:1542   */\n      dup7\n        /* \"#utility.yul\":1526:1532   */\n      dup3\n        /* \"#utility.yul\":1515:1524   */\n      dup8\n        /* \"#utility.yul\":1511:1533   */\n      add\n        /* \"#utility.yul\":1490:1543   */\n      tag_23\n      jump\t// in\n    tag_50:\n        /* \"#utility.yul\":1480:1543   */\n      swap4\n      pop\n        /* \"#utility.yul\":1436:1553   */\n      pop\n        /* \"#utility.yul\":1592:1594   */\n      0x20\n        /* \"#utility.yul\":1618:1671   */\n      tag_51\n        /* \"#utility.yul\":1663:1670   */\n      dup7\n        /* \"#utility.yul\":1654:1660   */\n      dup3\n        /* \"#utility.yul\":1643:1652   */\n      dup8\n        /* \"#utility.yul\":1639:1661   */\n      add\n        /* \"#utility.yul\":1618:1671   */\n      tag_26\n      jump\t// in\n    tag_51:\n        /* \"#utility.yul\":1608:1671   */\n      swap3\n      pop\n        /* \"#utility.yul\":1563:1681   */\n      pop\n        /* \"#utility.yul\":1720:1722   */\n      0x40\n        /* \"#utility.yul\":1746:1799   */\n      tag_52\n        /* \"#utility.yul\":1791:1798   */\n      dup7\n        /* \"#utility.yul\":1782:1788   */\n      dup3\n        /* \"#utility.yul\":1771:1780   */\n      dup8\n        /* \"#utility.yul\":1767:1789   */\n      add\n        /* \"#utility.yul\":1746:1799   */\n      tag_26\n      jump\t// in\n    tag_52:\n        /* \"#utility.yul\":1736:1799   */\n      swap2\n      pop\n        /* \"#utility.yul\":1691:1809   */\n      pop\n        /* \"#utility.yul\":1197:1816   */\n      swap3\n      pop\n      swap3\n      pop\n      swap3\n      jump\t// out\n        /* \"#utility.yul\":1822:1940   */\n    tag_27:\n        /* \"#utility.yul\":1909:1933   */\n      tag_54\n        /* \"#utility.yul\":1927:1932   */\n      dup2\n        /* \"#utility.yul\":1909:1933   */\n      tag_24\n      jump\t// in\n    tag_54:\n        /* \"#utility.yul\":1904:1907   */\n      dup3\n        /* \"#utility.yul\":1897:1934   */\n      mstore\n        /* \"#utility.yul\":1822:1940   */\n      pop\n      pop\n      jump\t// out\n        /* \"#utility.yul\":1946:2499   */\n    tag_9:\n        /* \"#utility.yul\":2123:2127   */\n      0x00\n        /* \"#utility.yul\":2161:2164   */\n      0x80\n        /* \"#utility.yul\":2150:2159   */\n      dup3\n        /* \"#utility.yul\":2146:2165   */\n      add\n        /* \"#utility.yul\":2138:2165   */\n      swap1\n      pop\n        /* \"#utility.yul\":2175:2246   */\n      tag_56\n        /* \"#utility.yul\":2243:2244   */\n      0x00\n        /* \"#utility.yul\":2232:2241   */\n      dup4\n        /* \"#utility.yul\":2228:2245   */\n      add\n        /* \"#utility.yul\":2219:2225   */\n      dup8\n        /* \"#utility.yul\":2175:2246   */\n      tag_27\n      jump\t// in\n    tag_56:\n        /* \"#utility.yul\":2256:2328   */\n      tag_57\n        /* \"#utility.yul\":2324:2326   */\n      0x20\n        /* \"#utility.yul\":2313:2322   */\n      dup4\n        /* \"#utility.yul\":2309:2327   */\n      add\n        /* \"#utility.yul\":2300:2306   */\n      dup7\n        /* \"#utility.yul\":2256:2328   */\n      tag_27\n      jump\t// in\n    tag_57:\n        /* \"#utility.yul\":2338:2410   */\n      tag_58\n        /* \"#utility.yul\":2406:2408   */\n      0x40\n        /* \"#utility.yul\":2395:2404   */\n      dup4\n        /* \"#utility.yul\":2391:2409   */\n      add\n        /* \"#utility.yul\":2382:2388   */\n      dup6\n        /* \"#utility.yul\":2338:2410   */\n      tag_27\n      jump\t// in\n    tag_58:\n        /* \"#utility.yul\":2420:2492   */\n      tag_59\n        /* \"#utility.yul\":2488:2490   */\n      0x60\n        /* \"#utility.yul\":2477:2486   */\n      dup4\n        /* \"#utility.yul\":2473:2491   */\n      add\n        /* \"#utility.yul\":2464:2470   */\n      dup5\n        /* \"#utility.yul\":2420:2492   */\n      tag_27\n      jump\t// in\n    tag_59:\n        /* \"#utility.yul\":1946:2499   */\n      swap6\n      swap5\n      pop\n      pop\n      pop\n      pop\n      pop\n      jump\t// out\n        /* \"#utility.yul\":2505:2837   */\n    tag_12:\n        /* \"#utility.yul\":2626:2630   */\n      0x00\n        /* \"#utility.yul\":2664:2666   */\n      0x40\n        /* \"#utility.yul\":2653:2662   */\n      dup3\n        /* \"#utility.yul\":2649:2667   */\n      add\n        /* \"#utility.yul\":2641:2667   */\n      swap1\n      pop\n        /* \"#utility.yul\":2677:2748   */\n      tag_61\n        /* \"#utility.yul\":2745:2746   */\n      0x00\n        /* \"#utility.yul\":2734:2743   */\n      dup4\n        /* \"#utility.yul\":2730:2747   */\n      add\n        /* \"#utility.yul\":2721:2727   */\n      dup6\n        /* \"#utility.yul\":2677:2748   */\n      tag_27\n      jump\t// in\n    tag_61:\n        /* \"#utility.yul\":2758:2830   */\n      tag_62\n        /* \"#utility.yul\":2826:2828   */\n      0x20\n        /* \"#utility.yul\":2815:2824   */\n      dup4\n        /* \"#utility.yul\":2811:2829   */\n      add\n        /* \"#utility.yul\":2802:2808   */\n      dup5\n        /* \"#utility.yul\":2758:2830   */\n      tag_27\n      jump\t// in\n    tag_62:\n        /* \"#utility.yul\":2505:2837   */\n      swap4\n      swap3\n      pop\n      pop\n      pop\n      jump\t// out\n        /* \"#utility.yul\":2843:2986   */\n    tag_28:\n        /* \"#utility.yul\":2900:2905   */\n      0x00\n        /* \"#utility.yul\":2931:2937   */\n      dup2\n        /* \"#utility.yul\":2925:2938   */\n      mload\n        /* \"#utility.yul\":2916:2938   */\n      swap1\n      pop\n        /* \"#utility.yul\":2947:2980   */\n      tag_64\n        /* \"#utility.yul\":2974:2979   */\n      dup2\n        /* \"#utility.yul\":2947:2980   */\n      tag_25\n      jump\t// in\n    tag_64:\n        /* \"#utility.yul\":2843:2986   */\n      swap3\n      swap2\n      pop\n      pop\n      jump\t// out\n        /* \"#utility.yul\":2992:3812   */\n    tag_16:\n        /* \"#utility.yul\":3089:3095   */\n      0x00\n        /* \"#utility.yul\":3097:3103   */\n      0x00\n        /* \"#utility.yul\":3105:3111   */\n      0x00\n        /* \"#utility.yul\":3113:3119   */\n      0x00\n        /* \"#utility.yul\":3162:3165   */\n      0x80\n        /* \"#utility.yul\":3150:3159   */\n      dup6\n        /* \"#utility.yul\":3141:3148   */\n      dup8\n        /* \"#utility.yul\":3137:3160   */\n      sub\n        /* \"#utility.yul\":3133:3166   */\n      slt\n        /* \"#utility.yul\":3130:3250   */\n      iszero\n      tag_66\n      jumpi\n        /* \"#utility.yul\":3169:3248   */\n      tag_67\n      tag_18\n      jump\t// in\n    tag_67:\n        /* \"#utility.yul\":3130:3250   */\n    tag_66:\n        /* \"#utility.yul\":3289:3290   */\n      0x00\n        /* \"#utility.yul\":3314:3378   */\n      tag_68\n        /* \"#utility.yul\":3370:3377   */\n      dup8\n        /* \"#utility.yul\":3361:3367   */\n      dup3\n        /* \"#utility.yul\":3350:3359   */\n      dup9\n        /* \"#utility.yul\":3346:3368   */\n      add\n        /* \"#utility.yul\":3314:3378   */\n      tag_28\n      jump\t// in\n    tag_68:\n        /* \"#utility.yul\":3304:3378   */\n      swap5\n      pop\n        /* \"#utility.yul\":3260:3388   */\n      pop\n        /* \"#utility.yul\":3427:3429   */\n      0x20\n        /* \"#utility.yul\":3453:3517   */\n      tag_69\n        /* \"#utility.yul\":3509:3516   */\n      dup8\n        /* \"#utility.yul\":3500:3506   */\n      dup3\n        /* \"#utility.yul\":3489:3498   */\n      dup9\n        /* \"#utility.yul\":3485:3507   */\n      add\n        /* \"#utility.yul\":3453:3517   */\n      tag_28\n      jump\t// in\n    tag_69:\n        /* \"#utility.yul\":3443:3517   */\n      swap4\n      pop\n        /* \"#utility.yul\":3398:3527   */\n      pop\n        /* \"#utility.yul\":3566:3568   */\n      0x40\n        /* \"#utility.yul\":3592:3656   */\n      tag_70\n        /* \"#utility.yul\":3648:3655   */\n      dup8\n        /* \"#utility.yul\":3639:3645   */\n      dup3\n        /* \"#utility.yul\":3628:3637   */\n      dup9\n        /* \"#utility.yul\":3624:3646   */\n      add\n        /* \"#utility.yul\":3592:3656   */\n      tag_28\n      jump\t// in\n    tag_70:\n        /* \"#utility.yul\":3582:3656   */\n      swap3\n      pop\n        /* \"#utility.yul\":3537:3666   */\n      pop\n        /* \"#utility.yul\":3705:3707   */\n      0x60\n        /* \"#utility.yul\":3731:3795   */\n      tag_71\n        /* \"#utility.yul\":3787:3794   */\n      dup8\n        /* \"#utility.yul\":3778:3784   */\n      dup3\n        /* \"#utility.yul\":3767:3776   */\n      dup9\n        /* \"#utility.yul\":3763:3785   */\n      add\n        /* \"#utility.yul\":3731:3795   */\n      tag_28\n      jump\t// in\n    tag_71:\n        /* \"#utility.yul\":3721:3795   */\n      swap2\n      pop\n        /* \"#utility.yul\":3676:3805   */\n      pop\n        /* \"#utility.yul\":2992:3812   */\n      swap3\n      swap6\n      swap2\n      swap5\n      pop\n      swap3\n      pop\n      jump\t// out\n\n    auxdata: 0xa26469706673582212203cd54083ca8d9338f13385989e804697d779f05e4fc865cd9296b9dbc6c558d664736f6c634300081e0033\n}\n",
				"bytecode": {
					"linkReferences": {},
					"object": "6080604052348015600e575f5ffd5b506102f78061001c5f395ff3fe608060405234801561000f575f5ffd5b5060043610610029575f3560e01c8063d02a7f3d1461002d575b5f5ffd5b61004760048036038101906100429190610180565b610060565b60405161005794939291906101df565b60405180910390f35b5f5f5f5f8673ffffffffffffffffffffffffffffffffffffffff16637a85644b87876040518363ffffffff1660e01b815260040161009f929190610222565b608060405180830381865afa1580156100ba573d5f5f3e3d5ffd5b505050506040513d601f19601f820116820180604052508101906100de919061025d565b935093509350935093509350935093565b5f5ffd5b5f73ffffffffffffffffffffffffffffffffffffffff82169050919050565b5f61011c826100f3565b9050919050565b61012c81610112565b8114610136575f5ffd5b50565b5f8135905061014781610123565b92915050565b5f819050919050565b61015f8161014d565b8114610169575f5ffd5b50565b5f8135905061017a81610156565b92915050565b5f5f5f60608486031215610197576101966100ef565b5b5f6101a486828701610139565b93505060206101b58682870161016c565b92505060406101c68682870161016c565b9150509250925092565b6101d98161014d565b82525050565b5f6080820190506101f25f8301876101d0565b6101ff60208301866101d0565b61020c60408301856101d0565b61021960608301846101d0565b95945050505050565b5f6040820190506102355f8301856101d0565b61024260208301846101d0565b9392505050565b5f8151905061025781610156565b92915050565b5f5f5f5f60808587031215610275576102746100ef565b5b5f61028287828801610249565b945050602061029387828801610249565b93505060406102a487828801610249565b92505060606102b587828801610249565b9150509295919450925056fea26469706673582212203cd54083ca8d9338f13385989e804697d779f05e4fc865cd9296b9dbc6c558d664736f6c634300081e0033",
					"opcodes": "PUSH1 0x80 PUSH1 0x40 MSTORE CALLVALUE DUP1 ISZERO PUSH1 0xE JUMPI PUSH0 PUSH0 REVERT JUMPDEST POP PUSH2 0x2F7 DUP1 PUSH2 0x1C PUSH0 CODECOPY PUSH0 RETURN INVALID PUSH1 0x80 PUSH1 0x40 MSTORE CALLVALUE DUP1 ISZERO PUSH2 0xF JUMPI PUSH0 PUSH0 REVERT JUMPDEST POP PUSH1 0x4 CALLDATASIZE LT PUSH2 0x29 JUMPI PUSH0 CALLDATALOAD PUSH1 0xE0 SHR DUP1 PUSH4 0xD02A7F3D EQ PUSH2 0x2D JUMPI JUMPDEST PUSH0 PUSH0 REVERT JUMPDEST PUSH2 0x47 PUSH1 0x4 DUP1 CALLDATASIZE SUB DUP2 ADD SWAP1 PUSH2 0x42 SWAP2 SWAP1 PUSH2 0x180 JUMP JUMPDEST PUSH2 0x60 JUMP JUMPDEST PUSH1 0x40 MLOAD PUSH2 0x57 SWAP5 SWAP4 SWAP3 SWAP2 SWAP1 PUSH2 0x1DF JUMP JUMPDEST PUSH1 0x40 MLOAD DUP1 SWAP2 SUB SWAP1 RETURN JUMPDEST PUSH0 PUSH0 PUSH0 PUSH0 DUP7 PUSH20 0xFFFFFFFFFFFFFFFFFFFFFFFFFFFFFFFFFFFFFFFF AND PUSH4 0x7A85644B DUP8 DUP8 PUSH1 0x40 MLOAD DUP4 PUSH4 0xFFFFFFFF AND PUSH1 0xE0 SHL DUP2 MSTORE PUSH1 0x4 ADD PUSH2 0x9F SWAP3 SWAP2 SWAP1 PUSH2 0x222 JUMP JUMPDEST PUSH1 0x80 PUSH1 0x40 MLOAD DUP1 DUP4 SUB DUP2 DUP7 GAS STATICCALL ISZERO DUP1 ISZERO PUSH2 0xBA JUMPI RETURNDATASIZE PUSH0 PUSH0 RETURNDATACOPY RETURNDATASIZE PUSH0 REVERT JUMPDEST POP POP POP POP PUSH1 0x40 MLOAD RETURNDATASIZE PUSH1 0x1F NOT PUSH1 0x1F DUP3 ADD AND DUP3 ADD DUP1 PUSH1 0x40 MSTORE POP DUP2 ADD SWAP1 PUSH2 0xDE SWAP2 SWAP1 PUSH2 0x25D JUMP JUMPDEST SWAP4 POP SWAP4 POP SWAP4 POP SWAP4 POP SWAP4 POP SWAP4 POP SWAP4 POP SWAP4 JUMP JUMPDEST PUSH0 PUSH0 REVERT JUMPDEST PUSH0 PUSH20 0xFFFFFFFFFFFFFFFFFFFFFFFFFFFFFFFFFFFFFFFF DUP3 AND SWAP1 POP SWAP2 SWAP1 POP JUMP JUMPDEST PUSH0 PUSH2 0x11C DUP3 PUSH2 0xF3 JUMP JUMPDEST SWAP1 POP SWAP2 SWAP1 POP JUMP JUMPDEST PUSH2 0x12C DUP2 PUSH2 0x112 JUMP JUMPDEST DUP2 EQ PUSH2 0x136 JUMPI PUSH0 PUSH0 REVERT JUMPDEST POP JUMP JUMPDEST PUSH0 DUP2 CALLDATALOAD SWAP1 POP PUSH2 0x147 DUP2 PUSH2 0x123 JUMP JUMPDEST SWAP3 SWAP2 POP POP JUMP JUMPDEST PUSH0 DUP2 SWAP1 POP SWAP2 SWAP1 POP JUMP JUMPDEST PUSH2 0x15F DUP2 PUSH2 0x14D JUMP JUMPDEST DUP2 EQ PUSH2 0x169 JUMPI PUSH0 PUSH0 REVERT JUMPDEST POP JUMP JUMPDEST PUSH0 DUP2 CALLDATALOAD SWAP1 POP PUSH2 0x17A DUP2 PUSH2 0x156 JUMP JUMPDEST SWAP3 SWAP2 POP POP JUMP JUMPDEST PUSH0 PUSH0 PUSH0 PUSH1 0x60 DUP5 DUP7 SUB SLT ISZERO PUSH2 0x197 JUMPI PUSH2 0x196 PUSH2 0xEF JUMP JUMPDEST JUMPDEST PUSH0 PUSH2 0x1A4 DUP7 DUP3 DUP8 ADD PUSH2 0x139 JUMP JUMPDEST SWAP4 POP POP PUSH1 0x20 PUSH2 0x1B5 DUP7 DUP3 DUP8 ADD PUSH2 0x16C JUMP JUMPDEST SWAP3 POP POP PUSH1 0x40 PUSH2 0x1C6 DUP7 DUP3 DUP8 ADD PUSH2 0x16C JUMP JUMPDEST SWAP2 POP POP SWAP3 POP SWAP3 POP SWAP3 JUMP JUMPDEST PUSH2 0x1D9 DUP2 PUSH2 0x14D JUMP JUMPDEST DUP3 MSTORE POP POP JUMP JUMPDEST PUSH0 PUSH1 0x80 DUP3 ADD SWAP1 POP PUSH2 0x1F2 PUSH0 DUP4 ADD DUP8 PUSH2 0x1D0 JUMP JUMPDEST PUSH2 0x1FF PUSH1 0x20 DUP4 ADD DUP7 PUSH2 0x1D0 JUMP JUMPDEST PUSH2 0x20C PUSH1 0x40 DUP4 ADD DUP6 PUSH2 0x1D0 JUMP JUMPDEST PUSH2 0x219 PUSH1 0x60 DUP4 ADD DUP5 PUSH2 0x1D0 JUMP JUMPDEST SWAP6 SWAP5 POP POP POP POP POP JUMP JUMPDEST PUSH0 PUSH1 0x40 DUP3 ADD SWAP1 POP PUSH2 0x235 PUSH0 DUP4 ADD DUP6 PUSH2 0x1D0 JUMP JUMPDEST PUSH2 0x242 PUSH1 0x20 DUP4 ADD DUP5 PUSH2 0x1D0 JUMP JUMPDEST SWAP4 SWAP3 POP POP POP JUMP JUMPDEST PUSH0 DUP2 MLOAD SWAP1 POP PUSH2 0x257 DUP2 PUSH2 0x156 JUMP JUMPDEST SWAP3 SWAP2 POP POP JUMP JUMPDEST PUSH0 PUSH0 PUSH0 PUSH0 PUSH1 0x80 DUP6 DUP8 SUB SLT ISZERO PUSH2 0x275 JUMPI PUSH2 0x274 PUSH2 0xEF JUMP JUMPDEST JUMPDEST PUSH0 PUSH2 0x282 DUP8 DUP3 DUP9 ADD PUSH2 0x249 JUMP JUMPDEST SWAP5 POP POP PUSH1 0x20 PUSH2 0x293 DUP8 DUP3 DUP9 ADD PUSH2 0x249 JUMP JUMPDEST SWAP4 POP POP PUSH1 0x40 PUSH2 0x2A4 DUP8 DUP3 DUP9 ADD PUSH2 0x249 JUMP JUMPDEST SWAP3 POP POP PUSH1 0x60 PUSH2 0x2B5 DUP8 DUP3 DUP9 ADD PUSH2 0x249 JUMP JUMPDEST SWAP2 POP POP SWAP3 SWAP6 SWAP2 SWAP5 POP SWAP3 POP JUMP INVALID LOG2 PUSH5 0x6970667358 0x22 SLT KECCAK256 EXTCODECOPY 0xD5 BLOCKHASH DUP4 0xCA DUP14 SWAP4 CODESIZE CALL CALLER DUP6 SWAP9 SWAP15 DUP1 CHAINID SWAP8 0xD7 PUSH26 0xF05E4FC865CD9296B9DBC6C558D664736F6C634300081E003300 "
				},
				"gasEstimates": {
					"creation": {
						"codeDepositCost": "151800",
						"executionCost": "194",
						"totalCost": "151994"
					},
					"external": {
						"callCompute(address,uint256,uint256)": "infinite"
					}
				},
				"methodIdentifiers": {
					"callCompute(address,uint256,uint256)": "d02a7f3d"
				}
			},
			"storageLayout": {
				"storage": [],
				"types": null
			},
			"userdoc": {
				"kind": "user",
				"methods": {},
				"version": 1
			}
		}
	}
}