{
	"contracts/Caller.sol": {
		"Receiver": {
			"abi": [
				{
					"inputs": [
						{
							"internalType": "uint256",
							"name": "a",
							"type": "uint256"
						},
						{
							"internalType": "uint256",
							"name": "b",
							"type": "uint256"
						}
					],
					"name": "compute",
					"outputs": [
						{
							"internalType": "uint256",
							"name": "sum",
							"type": "uint256"
						},
						{
							"internalType": "uint256",
							"name": "difference",
							"type": "uint256"
						},
						{
							"internalType": "uint256",
							"name": "product",
							"type": "uint256"
						},
						{
							"internalType": "uint256",
							"name": "quotient",
							"type": "uint256"
						}
					],
					"stateMutability": "pure",
					"type": "function"
				}
			],
			"devdoc": {
				"kind": "dev",
				"methods": {},
				"version": 1
			},
			"evm": {
				"assembly": "    /* \"contracts/Caller.sol\":61:349  contract Receiver {... */\n  mstore(0x40, 0x80)\n  callvalue\n  dup1\n  iszero\n  tag_1\n  jumpi\n  revert(0x00, 0x00)\ntag_1:\n  pop\n  dataSize(sub_0)\n  dup1\n  dataOffset(sub_0)\n  0x00\n  codecopy\n  0x00\n  return\nstop\n\nsub_0: assembly {\n        /* \"contracts/Caller.sol\":61:349  contract Receiver {... */\n      mstore(0x40, 0x80)\n      callvalue\n      dup1\n      iszero\n      tag_1\n      jumpi\n      revert(0x00, 0x00)\n    tag_1:\n      pop\n      jumpi(tag_2, lt(calldatasize, 0x04))\n      shr(0xe0, calldataload(0x00))\n      dup1\n      0x7a85644b\n      eq\n      tag_3\n      jumpi\n    tag_2:\n      revert(0x00, 0x00)\n        /* \"contracts/Caller.sol\":86:346  function compute(uint a, uint b) external pure returns (uint sum, uint difference, uint product, uint quotient)... */\n    tag_3:\n      tag_4\n      0x04\n      dup1\n      calldatasize\n      sub\n      dup2\n      add\n      swap1\n      tag_5\n      swap2\n      swap1\n      tag_6\n      jump\t// in\n    tag_5:\n      tag_7\n      jump\t// in\n    tag_4:\n      mload(0x40)\n      tag_8\n      swap5\n      swap4\n      swap3\n      swap2\n      swap1\n      tag_9\n      jump\t// in\n    tag_8:\n      mload(0x40)\n      dup1\n      swap2\n      sub\n      swap1\n      return\n    tag_7:\n        /* \"contracts/Caller.sol\":142:150  uint sum */\n      0x00\n        /* \"contracts/Caller.sol\":152:167  uint difference */\n      0x00\n        /* \"contracts/Caller.sol\":169:181  uint product */\n      0x00\n        /* \"contracts/Caller.sol\":183:196  uint quotient */\n      0x00\n        /* \"contracts/Caller.sol\":224:225  b */\n      dup5\n        /* \"contracts/Caller.sol\":220:221  a */\n      dup7\n        /* \"contracts/Caller.sol\":220:225  a + b */\n      tag_11\n      swap2\n      swap1\n      tag_12\n      jump\t// in\n    tag_11:\n        /* \"contracts/Caller.sol\":214:225  sum = a + b */\n      swap4\n      pop\n        /* \"contracts/Caller.sol\":253:254  b */\n      dup5\n        /* \"contracts/Caller.sol\":249:250  a */\n      dup7\n        /* \"contracts/Caller.sol\":249:254  a - b */\n      tag_13\n      swap2\n      swap1\n      tag_14\n      jump\t// in\n    tag_13:\n        /* \"contracts/Caller.sol\":236:254  difference = a - b */\n      swap3\n      pop\n        /* \"contracts/Caller.sol\":279:280  b */\n      dup5\n        /* \"contracts/Caller.sol\":275:276  a */\n      dup7\n        /* \"contracts/Caller.sol\":275:280  a * b */\n      tag_15\n      swap2\n      swap1\n      tag_16\n      jump\t// in\n    tag_15:\n        /* \"contracts/Caller.sol\":265:280  product = a * b */\n      swap2\n      pop\n        /* \"contracts/Caller.sol\":306:307  b */\n      dup5\n        /* \"contracts/Caller.sol\":302:303  a */\n      dup7\n        /* \"contracts/Caller.sol\":302:307  a / b */\n      tag_17\n      swap2\n      swap1\n      tag_18\n      jump\t// in\n    tag_17:\n        /* \"contracts/Caller.sol\":291:307  quotient = a / b */\n      swap1\n      pop\n        /* \"contracts/Caller.sol\":86:346  function compute(uint a, uint b) external pure returns (uint sum, uint difference, uint product, uint quotient)... */\n      swap3\n      swap6\n      swap2\n      swap5\n      pop\n      swap3\n      pop\n      jump\t// out\n        /* \"#utility.yul\":88:205   */\n    tag_20:\n        /* \"#utility.yul\":197:198   */\n      0x00\n        /* \"#utility.yul\":194:195   */\n      0x00\n        /* \"#utility.yul\":187:199   */\n      revert\n        /* \"#utility.yul\":334:411   */\n    tag_22:\n        /* \"#utility.yul\":371:378   */\n      0x00\n        /* \"#utility.yul\":400:405   */\n      dup2\n        /* \"#utility.yul\":389:405   */\n      swap1\n      pop\n        /* \"#utility.yul\":334:411   */\n      swap2\n      swap1\n      pop\n      jump\t// out\n        /* \"#utility.yul\":417:539   */\n    tag_23:\n        /* \"#utility.yul\":490:514   */\n      tag_34\n        /* \"#utility.yul\":508:513   */\n      dup2\n        /* \"#utility.yul\":490:514   */\n      tag_22\n      jump\t// in\n    tag_34:\n        /* \"#utility.yul\":483:488   */\n      dup2\n        /* \"#utility.yul\":480:515   */\n      eq\n        /* \"#utility.yul\":470:533   */\n      tag_35\n      jumpi\n        /* \"#utility.yul\":529:530   */\n      0x00\n        /* \"#utility.yul\":526:527   */\n      0x00\n        /* \"#utility.yul\":519:531   */\n      revert\n        /* \"#utility.yul\":470:533   */\n    tag_35:\n        /* \"#utility.yul\":417:539   */\n      pop\n      jump\t// out\n        /* \"#utility.yul\":545:684   */\n    tag_24:\n        /* \"#utility.yul\":591:596   */\n      0x00\n        /* \"#utility.yul\":629:635   */\n      dup2\n        /* \"#utility.yul\":616:636   */\n      calldataload\n        /* \"#utility.yul\":607:636   */\n      swap1\n      pop\n        /* \"#utility.yul\":645:678   */\n      tag_37\n        /* \"#utility.yul\":672:677   */\n      dup2\n        /* \"#utility.yul\":645:678   */\n      tag_23\n      jump\t// in\n    tag_37:\n        /* \"#utility.yul\":545:684   */\n      swap3\n      swap2\n      pop\n      pop\n      jump\t// out\n        /* \"#utility.yul\":690:1164   */\n    tag_6:\n        /* \"#utility.yul\":758:764   */\n      0x00\n        /* \"#utility.yul\":766:772   */\n      0x00\n        /* \"#utility.yul\":815:817   */\n      0x40\n        /* \"#utility.yul\":803:812   */\n      dup4\n        /* \"#utility.yul\":794:801   */\n      dup6\n        /* \"#utility.yul\":790:813   */\n      sub\n        /* \"#utility.yul\":786:818   */\n      slt\n        /* \"#utility.yul\":783:902   */\n      iszero\n      tag_39\n      jumpi\n        /* \"#utility.yul\":821:900   */\n      tag_40\n      tag_20\n      jump\t// in\n    tag_40:\n        /* \"#utility.yul\":783:902   */\n    tag_39:\n        /* \"#utility.yul\":941:942   */\n      0x00\n        /* \"#utility.yul\":966:1019   */\n      tag_41\n        /* \"#utility.yul\":1011:1018   */\n      dup6\n        /* \"#utility.yul\":1002:1008   */\n      dup3\n        /* \"#utility.yul\":991:1000   */\n      dup7\n        /* \"#utility.yul\":987:1009   */\n      add\n        /* \"#utility.yul\":966:1019   */\n      tag_24\n      jump\t// in\n    tag_41:\n        /* \"#utility.yul\":956:1019   */\n      swap3\n      pop\n        /* \"#utility.yul\":912:1029   */\n      pop\n        /* \"#utility.yul\":1068:1070   */\n      0x20\n        /* \"#utility.yul\":1094:1147   */\n      tag_42\n        /* \"#utility.yul\":1139:1146   */\n      dup6\n        /* \"#utility.yul\":1130:1136   */\n      dup3\n        /* \"#utility.yul\":1119:1128   */\n      dup7\n        /* \"#utility.yul\":1115:1137   */\n      add\n        /* \"#utility.yul\":1094:1147   */\n      tag_24\n      jump\t// in\n    tag_42:\n        /* \"#utility.yul\":1084:1147   */\n      swap2\n      pop\n        /* \"#utility.yul\":1039:1157   */\n      pop\n        /* \"#utility.yul\":690:1164   */\n      swap3\n      pop\n      swap3\n      swap1\n      pop\n      jump\t// out\n        /* \"#utility.yul\":1170:1288   */\n    tag_25:\n        /* \"#utility.yul\":1257:1281   */\n      tag_44\n        /* \"#utility.yul\":1275:1280   */\n      dup2\n        /* \"#utility.yul\":1257:1281   */\n      tag_22\n      jump\t// in\n    tag_44:\n        /* \"#utility.yul\":1252:1255   */\n      dup3\n        /* \"#utility.yul\":1245:1282   */\n      mstore\n        /* \"#utility.yul\":1170:1288   */\n      pop\n      pop\n      jump\t// out\n        /* \"#utility.yul\":1294:1847   */\n    tag_9:\n        /* \"#utility.yul\":1471:1475   */\n      0x00\n        /* \"#utility.yul\":1509:1512   */\n      0x80\n        /* \"#utility.yul\":1498:1507   */\n      dup3\n        /* \"#utility.yul\":1494:1513   */\n      add\n        /* \"#utility.yul\":1486:1513   */\n      swap1\n      pop\n        /* \"#utility.yul\":1523:1594   */\n      tag_46\n        /* \"#utility.yul\":1591:1592   */\n      0x00\n        /* \"#utility.yul\":1580:1589   */\n      dup4\n        /* \"#utility.yul\":1576:1593   */\n      add\n        /* \"#utility.yul\":1567:1573   */\n      dup8\n        /* \"#utility.yul\":1523:1594   */\n      tag_25\n      jump\t// in\n    tag_46:\n        /* \"#utility.yul\":1604:1676   */\n      tag_47\n        /* \"#utility.yul\":1672:1674   */\n      0x20\n        /* \"#utility.yul\":1661:1670   */\n      dup4\n        /* \"#utility.yul\":1657:1675   */\n      add\n        /* \"#utility.yul\":1648:1654   */\n      dup7\n        /* \"#utility.yul\":1604:1676   */\n      tag_25\n      jump\t// in\n    tag_47:\n        /* \"#utility.yul\":1686:1758   */\n      tag_48\n        /* \"#utility.yul\":1754:1756   */\n      0x40\n        /* \"#utility.yul\":1743:1752   */\n      dup4\n        /* \"#utility.yul\":1739:1757   */\n      add\n        /* \"#utility.yul\":1730:1736   */\n      dup6\n        /* \"#utility.yul\":1686:1758   */\n      tag_25\n      jump\t// in\n    tag_48:\n        /* \"#utility.yul\":1768:1840   */\n      tag_49\n        /* \"#utility.yul\":1836:1838   */\n      0x60\n        /* \"#utility.yul\":1825:1834   */\n      dup4\n        /* \"#utility.yul\":1821:1839   */\n      add\n        /* \"#utility.yul\":1812:1818   */\n      dup5\n        /* \"#utility.yul\":1768:1840   */\n      tag_25\n      jump\t// in\n    tag_49:\n        /* \"#utility.yul\":1294:1847   */\n      swap6\n      swap5\n      pop\n      pop\n      pop\n      pop\n      pop\n      jump\t// out\n        /* \"#utility.yul\":1853:2033   */\n    tag_26:\n        /* \"#utility.yul\":1901:1978   */\n      0x4e487b7100000000000000000000000000000000000000000000000000000000\n        /* \"#utility.yul\":1898:1899   */\n      0x00\n        /* \"#utility.yul\":1891:1979   */\n      mstore\n        /* \"#utility.yul\":1998:2002   */\n      0x11\n        /* \"#utility.yul\":1995:1996   */\n      0x04\n        /* \"#utility.yul\":1988:2003   */\n      mstore\n        /* \"#utility.yul\":2022:2026   */\n      0x24\n        /* \"#utility.yul\":2019:2020   */\n      0x00\n        /* \"#utility.yul\":2012:2027   */\n      revert\n        /* \"#utility.yul\":2039:2230   */\n    tag_12:\n        /* \"#utility.yul\":2079:2082   */\n      0x00\n        /* \"#utility.yul\":2098:2118   */\n      tag_52\n        /* \"#utility.yul\":2116:2117   */\n      dup3\n        /* \"#utility.yul\":2098:2118   */\n      tag_22\n      jump\t// in\n    tag_52:\n        /* \"#utility.yul\":2093:2118   */\n      swap2\n      pop\n        /* \"#utility.yul\":2132:2152   */\n      tag_53\n        /* \"#utility.yul\":2150:2151   */\n      dup4\n        /* \"#utility.yul\":2132:2152   */\n      tag_22\n      jump\t// in\n    tag_53:\n        /* \"#utility.yul\":2127:2152   */\n      swap3\n      pop\n        /* \"#utility.yul\":2175:2176   */\n      dup3\n        /* \"#utility.yul\":2172:2173   */\n      dup3\n        /* \"#utility.yul\":2168:2177   */\n      add\n        /* \"#utility.yul\":2161:2177   */\n      swap1\n      pop\n        /* \"#utility.yul\":2196:2199   */\n      dup1\n        /* \"#utility.yul\":2193:2194   */\n      dup3\n        /* \"#utility.yul\":2190:2200   */\n      gt\n        /* \"#utility.yul\":2187:2223   */\n      iszero\n      tag_54\n      jumpi\n        /* \"#utility.yul\":2203:2221   */\n      tag_55\n      tag_26\n      jump\t// in\n    tag_55:\n        /* \"#utility.yul\":2187:2223   */\n    tag_54:\n        /* \"#utility.yul\":2039:2230   */\n      swap3\n      swap2\n      pop\n      pop\n      jump\t// out\n        /* \"#utility.yul\":2236:2430   */\n    tag_14:\n        /* \"#utility.yul\":2276:2280   */\n      0x00\n        /* \"#utility.yul\":2296:2316   */\n      tag_57\n        /* \"#utility.yul\":2314:2315   */\n      dup3\n        /* \"#utility.yul\":2296:2316   */\n      tag_22\n      jump\t// in\n    tag_57:\n        /* \"#utility.yul\":2291:2316   */\n      swap2\n      pop\n        /* \"#utility.yul\":2330:2350   */\n      tag_58\n        /* \"#utility.yul\":2348:2349   */\n      dup4\n        /* \"#utility.yul\":2330:2350   */\n      tag_22\n      jump\t// in\n    tag_58:\n        /* \"#utility.yul\":2325:2350   */\n      swap3\n      pop\n        /* \"#utility.yul\":2374:2375   */\n      dup3\n        /* \"#utility.yul\":2371:2372   */\n      dup3\n        /* \"#utility.yul\":2367:2376   */\n      sub\n        /* \"#utility.yul\":2359:2376   */\n      swap1\n      pop\n        /* \"#utility.yul\":2398:2399   */\n      dup2\n        /* \"#utility.yul\":2392:2396   */\n      dup2\n        /* \"#utility.yul\":2389:2400   */\n      gt\n        /* \"#utility.yul\":2386:2423   */\n      iszero\n      tag_59\n      jumpi\n        /* \"#utility.yul\":2403:2421   */\n      tag_60\n      tag_26\n      jump\t// in\n    tag_60:\n        /* \"#utility.yul\":2386:2423   */\n    tag_59:\n        /* \"#utility.yul\":2236:2430   */\n      swap3\n      swap2\n      pop\n      pop\n      jump\t// out\n        /* \"#utility.yul\":2436:2846   */\n    tag_16:\n        /* \"#utility.yul\":2476:2483   */\n      0x00\n        /* \"#utility.yul\":2499:2519   */\n      tag_62\n        /* \"#utility.yul\":2517:2518   */\n      dup3\n        /* \"#utility.yul\":2499:2519   */\n      tag_22\n      jump\t// in\n    tag_62:\n        /* \"#utility.yul\":2494:2519   */\n      swap2\n      pop\n        /* \"#utility.yul\":2533:2553   */\n      tag_63\n        /* \"#utility.yul\":2551:2552   */\n      dup4\n        /* \"#utility.yul\":2533:2553   */\n      tag_22\n      jump\t// in\n    tag_63:\n        /* \"#utility.yul\":2528:2553   */\n      swap3\n      pop\n        /* \"#utility.yul\":2588:2589   */\n      dup3\n        /* \"#utility.yul\":2585:2586   */\n      dup3\n        /* \"#utility.yul\":2581:2590   */\n      mul\n        /* \"#utility.yul\":2610:2640   */\n      tag_64\n        /* \"#utility.yul\":2628:2639   */\n      dup2\n        /* \"#utility.yul\":2610:2640   */\n      tag_22\n      jump\t// in\n    tag_64:\n        /* \"#utility.yul\":2599:2640   */\n      swap2\n      pop\n        /* \"#utility.yul\":2789:2790   */\n      dup3\n        /* \"#utility.yul\":2780:2787   */\n      dup3\n        /* \"#utility.yul\":2776:2791   */\n      div\n        /* \"#utility.yul\":2773:2774   */\n      dup5\n        /* \"#utility.yul\":2770:2792   */\n      eq\n        /* \"#utility.yul\":2750:2751   */\n      dup4\n        /* \"#utility.yul\":2743:2752   */\n      iszero\n        /* \"#utility.yul\":2723:2806   */\n      or\n        /* \"#utility.yul\":2700:2839   */\n      tag_65\n      jumpi\n        /* \"#utility.yul\":2819:2837   */\n      tag_66\n      tag_26\n      jump\t// in\n    tag_66:\n        /* \"#utility.yul\":2700:2839   */\n    tag_65:\n        /* \"#utility.yul\":2484:2846   */\n      pop\n        /* \"#utility.yul\":2436:2846   */\n      swap3\n      swap2\n      pop\n      pop\n      jump\t// out\n        /* \"#utility.yul\":2852:3032   */\n    tag_27:\n        /* \"#utility.yul\":2900:2977   */\n      0x4e487b7100000000000000000000000000000000000000000000000000000000\n        /* \"#utility.yul\":2897:2898   */\n      0x00\n        /* \"#utility.yul\":2890:2978   */\n      mstore\n        /* \"#utility.yul\":2997:3001   */\n      0x12\n        /* \"#utility.yul\":2994:2995   */\n      0x04\n        /* \"#utility.yul\":2987:3002   */\n      mstore\n        /* \"#utility.yul\":3021:3025   */\n      0x24\n        /* \"#utility.yul\":3018:3019   */\n      0x00\n        /* \"#utility.yul\":3011:3026   */\n      revert\n        /* \"#utility.yul\":3038:3223   */\n    tag_18:\n        /* \"#utility.yul\":3078:3079   */\n      0x00\n        /* \"#utility.yul\":3095:3115   */\n      tag_69\n        /* \"#utility.yul\":3113:3114   */\n      dup3\n        /* \"#utility.yul\":3095:3115   */\n      tag_22\n      jump\t// in\n    tag_69:\n        /* \"#utility.yul\":3090:3115   */\n      swap2\n      pop\n        /* \"#utility.yul\":3129:3149   */\n      tag_70\n        /* \"#utility.yul\":3147:3148   */\n      dup4\n        /* \"#utility.yul\":3129:3149   */\n      tag_22\n      jump\t// in\n    tag_70:\n        /* \"#utility.yul\":3124:3149   */\n      swap3\n      pop\n        /* \"#utility.yul\":3168:3169   */\n      dup3\n        /* \"#utility.yul\":3158:3193   */\n      tag_71\n      jumpi\n        /* \"#utility.yul\":3173:3191   */\n      tag_72\n      tag_27\n      jump\t// in\n    tag_72:\n        /* \"#utility.yul\":3158:3193   */\n    tag_71:\n        /* \"#utility.yul\":3215:3216   */\n      dup3\n        /* \"#utility.yul\":3212:3213   */\n      dup3\n        /* \"#utility.yul\":3208:3217   */\n      div\n        /* \"#utility.yul\":3203:3217   */\n      swap1\n      pop\n        /* \"#utility.yul\":3038:3223   */\n      swap3\n      swap2\n      pop\n      pop\n      jump\t// out\n\n    auxdata: 0xa26469706673582212209aee558bbb2aa0e81ed8fdb135a68cf7d2086f86ef60f2f2654e81cb7c41c42b64736f6c634300081e0033\n}\n",
				"bytecode": {
					"linkReferences": {},
					"object": "6080604052348015600e575f5ffd5b506102d38061001c5f395ff3fe608060405234801561000f575f5ffd5b5060043610610029575f3560e01c80637a85644b1461002d575b5f5ffd5b610047600480360381019061004291906100dc565b610060565b6040516100579493929190610129565b60405180910390f35b5f5f5f5f84866100709190610199565b9350848661007e91906101cc565b9250848661008c91906101ff565b9150848661009a919061026d565b905092959194509250565b5f5ffd5b5f819050919050565b6100bb816100a9565b81146100c5575f5ffd5b50565b5f813590506100d6816100b2565b92915050565b5f5f604083850312156100f2576100f16100a5565b5b5f6100ff858286016100c8565b9250506020610110858286016100c8565b9150509250929050565b610123816100a9565b82525050565b5f60808201905061013c5f83018761011a565b610149602083018661011a565b610156604083018561011a565b610163606083018461011a565b95945050505050565b7f4e487b71000000000000000000000000000000000000000000000000000000005f52601160045260245ffd5b5f6101a3826100a9565b91506101ae836100a9565b92508282019050808211156101c6576101c561016c565b5b92915050565b5f6101d6826100a9565b91506101e1836100a9565b92508282039050818111156101f9576101f861016c565b5b92915050565b5f610209826100a9565b9150610214836100a9565b9250828202610222816100a9565b915082820484148315176102395761023861016c565b5b5092915050565b7f4e487b71000000000000000000000000000000000000000000000000000000005f52601260045260245ffd5b5f610277826100a9565b9150610282836100a9565b92508261029257610291610240565b5b82820490509291505056fea26469706673582212209aee558bbb2aa0e81ed8fdb135a68cf7d2086f86ef60f2f2654e81cb7c41c42b64736f6c634300081e0033",
					"opcodes": "PUSH1 0x80 PUSH1 0x40 MSTORE CALLVALUE DUP1 ISZERO PUSH1 0xE JUMPI PUSH0 PUSH0 REVERT JUMPDEST POP PUSH2 0x2D3 DUP1 PUSH2 0x1C PUSH0 CODECOPY PUSH0 RETURN INVALID PUSH1 0x80 PUSH1 0x40 MSTORE CALLVALUE DUP1 ISZERO PUSH2 0xF JUMPI PUSH0 PUSH0 REVERT JUMPDEST POP PUSH1 0x4 CALLDATASIZE LT PUSH2 0x29 JUMPI PUSH0 CALLDATALOAD PUSH1 0xE0 SHR DUP1 PUSH4 0x7A85644B EQ PUSH2 0x2D JUMPI JUMPDEST PUSH0 PUSH0 REVERT JUMPDEST PUSH2 0x47 PUSH1 0x4 DUP1 CALLDATASIZE SUB DUP2 ADD SWAP1 PUSH2 0x42 SWAP2 SWAP1 PUSH2 0xDC JUMP JUMPDEST PUSH2 0x60 JUMP JUMPDEST PUSH1 0x40 MLOAD PUSH2 0x57 SWAP5 SWAP4 SWAP3 SWAP2 SWAP1 PUSH2 0x129 JUMP JUMPDEST PUSH1 0x40 MLOAD DUP1 SWAP2 SUB SWAP1 RETURN JUMPDEST PUSH0 PUSH0 PUSH0 PUSH0 DUP5 DUP7 PUSH2 0x70 SWAP2 SWAP1 PUSH2 0x199 JUMP JUMPDEST SWAP4 POP DUP5 DUP7 PUSH2 0x7E SWAP2 SWAP1 PUSH2 0x1CC JUMP JUMPDEST SWAP3 POP DUP5 DUP7 PUSH2 0x8C SWAP2 SWAP1 PUSH2 0x1FF JUMP JUMPDEST SWAP2 POP DUP5 DUP7 PUSH2 0x9A SWAP2 SWAP1 PUSH2 0x26D JUMP JUMPDEST SWAP1 POP SWAP3 SWAP6 SWAP2 SWAP5 POP SWAP3 POP JUMP JUMPDEST PUSH0 PUSH0 REVERT JUMPDEST PUSH0 DUP2 SWAP1 POP SWAP2 SWAP1 POP JUMP JUMPDEST PUSH2 0xBB DUP2 PUSH2 0xA9 JUMP JUMPDEST DUP2 EQ PUSH2 0xC5 JUMPI PUSH0 PUSH0 REVERT JUMPDEST POP JUMP JUMPDEST PUSH0 DUP2 CALLDATALOAD SWAP1 POP PUSH2 0xD6 DUP2 PUSH2 0xB2 JUMP JUMPDEST SWAP3 SWAP2 POP POP JUMP JUMPDEST PUSH0 PUSH0 PUSH1 0x40 DUP4 DUP6 SUB SLT ISZERO PUSH2 0xF2 JUMPI PUSH2 0xF1 PUSH2 0xA5 JUMP JUMPDEST JUMPDEST PUSH0 PUSH2 0xFF DUP6 DUP3 DUP7 ADD PUSH2 0xC8 JUMP JUMPDEST SWAP3 POP POP PUSH1 0x20 PUSH2 0x110 DUP6 DUP3 DUP7 ADD PUSH2 0xC8 JUMP JUMPDEST SWAP2 POP POP SWAP3 POP SWAP3 SWAP1 POP JUMP JUMPDEST PUSH2 0x123 DUP2 PUSH2 0xA9 JUMP JUMPDEST DUP3 MSTORE POP POP JUMP JUMPDEST PUSH0 PUSH1 0x80 DUP3 ADD SWAP1 POP PUSH2 0x13C PUSH0 DUP4 ADD DUP8 PUSH2 0x11A JUMP JUMPDEST PUSH2 0x149 PUSH1 0x20 DUP4 ADD DUP7 PUSH2 0x11A JUMP JUMPDEST PUSH2 0x156 PUSH1 0x40 DUP4 ADD DUP6 PUSH2 0x11A JUMP JUMPDEST PUSH2 0x163 PUSH1 0x60 DUP4 ADD DUP5 PUSH2 0x11A JUMP JUMPDEST SWAP6 SWAP5 POP POP POP POP POP JUMP JUMPDEST PUSH32 0x4E487B7100000000000000000000000000000000000000000000000000000000 PUSH0 MSTORE PUSH1 0x11 PUSH1 0x4 MSTORE PUSH1 0x24 PUSH0 REVERT JUMPDEST PUSH0 PUSH2 0x1A3 DUP3 PUSH2 0xA9 JUMP JUMPDEST SWAP2 POP PUSH2 0x1AE DUP4 PUSH2 0xA9 JUMP JUMPDEST SWAP3 POP DUP3 DUP3 ADD SWAP1 POP DUP1 DUP3 GT ISZERO PUSH2 0x1C6 JUMPI PUSH2 0x1C5 PUSH2 0x16C JUMP JUMPDEST JUMPDEST SWAP3 SWAP2 POP POP JUMP JUMPDEST PUSH0 PUSH2 0x1D6 DUP3 PUSH2 0xA9 JUMP JUMPDEST SWAP2 POP PUSH2 0x1E1 DUP4 PUSH2 0xA9 JUMP JUMPDEST SWAP3 POP DUP3 DUP3 SUB SWAP1 POP DUP2 DUP2 GT ISZERO PUSH2 0x1F9 JUMPI PUSH2 0x1F8 PUSH2 0x16C JUMP JUMPDEST JUMPDEST SWAP3 SWAP2 POP POP JUMP JUMPDEST PUSH0 PUSH2 0x209 DUP3 PUSH2 0xA9 JUMP JUMPDEST SWAP2 POP PUSH2 0x214 DUP4 PUSH2 0xA9 JUMP JUMPDEST SWAP3 POP DUP3 DUP3 MUL PUSH2 0x222 DUP2 PUSH2 0xA9 JUMP JUMPDEST SWAP2 POP DUP3 DUP3 DIV DUP5 EQ DUP4 ISZERO OR PUSH2 0x239 JUMPI PUSH2 0x238 PUSH2 0x16C JUMP JUMPDEST JUMPDEST POP SWAP3 SWAP2 POP POP JUMP JUMPDEST PUSH32 0x4E487B7100000000000000000000000000000000000000000000000000000000 PUSH0 MSTORE PUSH1 0x12 PUSH1 0x4 MSTORE PUSH1 0x24 PUSH0 REVERT JUMPDEST PUSH0 PUSH2 0x277 DUP3 PUSH2 0xA9 JUMP JUMPDEST SWAP2 POP PUSH2 0x282 DUP4 PUSH2 0xA9 JUMP JUMPDEST SWAP3 POP DUP3 PUSH2 0x292 JUMPI PUSH2 0x291 PUSH2 0x240 JUMP JUMPDEST JUMPDEST DUP3 DUP3 DIV SWAP1 POP SWAP3 SWAP2 POP POP JUMP INVALID LOG2 PUSH5 0x6970667358 0x22 SLT KECCAK256 SWAP11 RETURNCONTRACT 0x55 DUP12 0xBB 0x2A LOG0 0xE8 0x1E 0xD8 REVERT 0xB1 CALLDATALOAD 0xA6 DUP13 0xF7 0xD2 ADDMOD PUSH16 0x86EF60F2F2654E81CB7C41C42B64736F PUSH13 0x634300081E0033000000000000 "
				},
				"gasEstimates": {
					"creation": {
						"codeDepositCost": "144600",
						"executionCost": "188",
						"totalCost": "144788"
					},
					"external": {
						"compute(uint256,uint256)": "infinite"
					}
				},
				"methodIdentifiers": {
					"compute(uint256,uint256)": "7a85644b"
				}
			},
			"storageLayout": {
				"storage": [],
				"types": null
			},
			"userdoc": {
				"kind": "user",
				"methods": {},
				"version": 1
			}
		}
	}
}